{
  "contractName": "WEB3_PASS",
  "abi": [
    {
      "inputs": [],
      "stateMutability": "nonpayable",
      "type": "constructor"
    },
    {
      "anonymous": false,
      "inputs": [
        {
          "indexed": true,
          "internalType": "address",
          "name": "account",
          "type": "address"
        },
        {
          "indexed": true,
          "internalType": "address",
          "name": "operator",
          "type": "address"
        },
        {
          "indexed": false,
          "internalType": "bool",
          "name": "approved",
          "type": "bool"
        }
      ],
      "name": "ApprovalForAll",
      "type": "event"
    },
    {
      "anonymous": false,
      "inputs": [
        {
          "indexed": false,
          "internalType": "uint256",
          "name": "tokenId",
          "type": "uint256"
        }
      ],
      "name": "Locked",
      "type": "event"
    },
    {
      "anonymous": false,
      "inputs": [
        {
          "indexed": true,
          "internalType": "address",
          "name": "operator",
          "type": "address"
        },
        {
          "indexed": true,
          "internalType": "address",
          "name": "from",
          "type": "address"
        },
        {
          "indexed": true,
          "internalType": "address",
          "name": "to",
          "type": "address"
        },
        {
          "indexed": false,
          "internalType": "uint256[]",
          "name": "ids",
          "type": "uint256[]"
        },
        {
          "indexed": false,
          "internalType": "uint256[]",
          "name": "values",
          "type": "uint256[]"
        }
      ],
      "name": "TransferBatch",
      "type": "event"
    },
    {
      "anonymous": false,
      "inputs": [
        {
          "indexed": true,
          "internalType": "address",
          "name": "operator",
          "type": "address"
        },
        {
          "indexed": true,
          "internalType": "address",
          "name": "from",
          "type": "address"
        },
        {
          "indexed": true,
          "internalType": "address",
          "name": "to",
          "type": "address"
        },
        {
          "indexed": false,
          "internalType": "uint256",
          "name": "id",
          "type": "uint256"
        },
        {
          "indexed": false,
          "internalType": "uint256",
          "name": "value",
          "type": "uint256"
        }
      ],
      "name": "TransferSingle",
      "type": "event"
    },
    {
      "anonymous": false,
      "inputs": [
        {
          "indexed": false,
          "internalType": "string",
          "name": "value",
          "type": "string"
        },
        {
          "indexed": true,
          "internalType": "uint256",
          "name": "id",
          "type": "uint256"
        }
      ],
      "name": "URI",
      "type": "event"
    },
    {
      "anonymous": false,
      "inputs": [
        {
          "indexed": false,
          "internalType": "uint256",
          "name": "tokenId",
          "type": "uint256"
        }
      ],
      "name": "Unlocked",
      "type": "event"
    },
    {
      "anonymous": false,
      "inputs": [
        {
          "indexed": false,
          "internalType": "uint256",
          "name": "obj",
          "type": "uint256"
        }
      ],
      "name": "consoleLogInt",
      "type": "event"
    },
    {
      "anonymous": false,
      "inputs": [
        {
          "indexed": false,
          "internalType": "string",
          "name": "data",
          "type": "string"
        }
      ],
      "name": "consoleLogString",
      "type": "event"
    },
    {
      "inputs": [
        {
          "internalType": "address",
          "name": "account",
          "type": "address"
        },
        {
          "internalType": "uint256",
          "name": "id",
          "type": "uint256"
        }
      ],
      "name": "balanceOf",
      "outputs": [
        {
          "internalType": "uint256",
          "name": "",
          "type": "uint256"
        }
      ],
      "stateMutability": "view",
      "type": "function",
      "constant": true
    },
    {
      "inputs": [
        {
          "internalType": "address[]",
          "name": "accounts",
          "type": "address[]"
        },
        {
          "internalType": "uint256[]",
          "name": "ids",
          "type": "uint256[]"
        }
      ],
      "name": "balanceOfBatch",
      "outputs": [
        {
          "internalType": "uint256[]",
          "name": "",
          "type": "uint256[]"
        }
      ],
      "stateMutability": "view",
      "type": "function",
      "constant": true
    },
    {
      "inputs": [
        {
          "internalType": "uint256",
          "name": "id",
          "type": "uint256"
        }
      ],
      "name": "creatorOf",
      "outputs": [
        {
          "internalType": "address",
          "name": "",
          "type": "address"
        }
      ],
      "stateMutability": "view",
      "type": "function",
      "constant": true
    },
    {
      "inputs": [
        {
          "internalType": "address",
          "name": "account",
          "type": "address"
        },
        {
          "internalType": "address",
          "name": "operator",
          "type": "address"
        }
      ],
      "name": "isApprovedForAll",
      "outputs": [
        {
          "internalType": "bool",
          "name": "",
          "type": "bool"
        }
      ],
      "stateMutability": "view",
      "type": "function",
      "constant": true
    },
    {
      "inputs": [
        {
          "internalType": "uint256",
          "name": "tokenId",
          "type": "uint256"
        }
      ],
      "name": "locked",
      "outputs": [
        {
          "internalType": "bool",
          "name": "",
          "type": "bool"
        }
      ],
      "stateMutability": "view",
      "type": "function",
      "constant": true
    },
    {
      "inputs": [
        {
          "internalType": "uint256",
          "name": "id",
          "type": "uint256"
        }
      ],
      "name": "minterOf",
      "outputs": [
        {
          "internalType": "address",
          "name": "",
          "type": "address"
        }
      ],
      "stateMutability": "view",
      "type": "function",
      "constant": true
    },
    {
      "inputs": [
        {
          "internalType": "address",
          "name": "",
          "type": "address"
        },
        {
          "internalType": "string",
          "name": "",
          "type": "string"
        }
      ],
      "name": "myData",
      "outputs": [
        {
          "internalType": "uint256",
          "name": "idx",
          "type": "uint256"
        },
        {
          "internalType": "address",
          "name": "addr",
          "type": "address"
        },
        {
          "internalType": "string",
          "name": "key",
          "type": "string"
        },
        {
          "internalType": "string",
          "name": "value",
          "type": "string"
        },
        {
          "internalType": "uint256",
          "name": "level",
          "type": "uint256"
        }
      ],
      "stateMutability": "view",
      "type": "function",
      "constant": true
    },
    {
      "inputs": [],
      "name": "name",
      "outputs": [
        {
          "internalType": "string",
          "name": "",
          "type": "string"
        }
      ],
      "stateMutability": "view",
      "type": "function",
      "constant": true
    },
    {
      "inputs": [
        {
          "internalType": "uint256",
          "name": "",
          "type": "uint256"
        }
      ],
      "name": "nft_asset",
      "outputs": [
        {
          "internalType": "string",
          "name": "metadata",
          "type": "string"
        },
        {
          "internalType": "address",
          "name": "owner",
          "type": "address"
        },
        {
          "internalType": "uint256",
          "name": "id",
          "type": "uint256"
        },
        {
          "internalType": "uint256",
          "name": "amount",
          "type": "uint256"
        },
        {
          "internalType": "uint256",
          "name": "price",
          "type": "uint256"
        },
        {
          "internalType": "uint256",
          "name": "flag",
          "type": "uint256"
        },
        {
          "internalType": "uint256",
          "name": "currency",
          "type": "uint256"
        }
      ],
      "stateMutability": "view",
      "type": "function",
      "constant": true
    },
    {
      "inputs": [
        {
          "internalType": "address",
          "name": "",
          "type": "address"
        },
        {
          "internalType": "uint256",
          "name": "",
          "type": "uint256"
        }
      ],
      "name": "ownedNFT",
      "outputs": [
        {
          "internalType": "string",
          "name": "metadata",
          "type": "string"
        },
        {
          "internalType": "address",
          "name": "owner",
          "type": "address"
        },
        {
          "internalType": "uint256",
          "name": "id",
          "type": "uint256"
        },
        {
          "internalType": "uint256",
          "name": "amount",
          "type": "uint256"
        },
        {
          "internalType": "uint256",
          "name": "price",
          "type": "uint256"
        },
        {
          "internalType": "uint256",
          "name": "flag",
          "type": "uint256"
        },
        {
          "internalType": "uint256",
          "name": "currency",
          "type": "uint256"
        }
      ],
      "stateMutability": "view",
      "type": "function",
      "constant": true
    },
    {
      "inputs": [
        {
          "internalType": "uint256",
          "name": "",
          "type": "uint256"
        }
      ],
      "name": "person_data",
      "outputs": [
        {
          "internalType": "uint256",
          "name": "idx",
          "type": "uint256"
        },
        {
          "internalType": "address",
          "name": "addr",
          "type": "address"
        },
        {
          "internalType": "string",
          "name": "key",
          "type": "string"
        },
        {
          "internalType": "string",
          "name": "value",
          "type": "string"
        },
        {
          "internalType": "uint256",
          "name": "level",
          "type": "uint256"
        }
      ],
      "stateMutability": "view",
      "type": "function",
      "constant": true
    },
    {
      "inputs": [
        {
          "internalType": "address",
          "name": "from",
          "type": "address"
        },
        {
          "internalType": "address",
          "name": "to",
          "type": "address"
        },
        {
          "internalType": "uint256[]",
          "name": "ids",
          "type": "uint256[]"
        },
        {
          "internalType": "uint256[]",
          "name": "amounts",
          "type": "uint256[]"
        },
        {
          "internalType": "bytes",
          "name": "data",
          "type": "bytes"
        }
      ],
      "name": "safeBatchTransferFrom",
      "outputs": [],
      "stateMutability": "nonpayable",
      "type": "function"
    },
    {
      "inputs": [
        {
          "internalType": "address",
          "name": "from",
          "type": "address"
        },
        {
          "internalType": "address",
          "name": "to",
          "type": "address"
        },
        {
          "internalType": "uint256",
          "name": "id",
          "type": "uint256"
        },
        {
          "internalType": "uint256",
          "name": "amount",
          "type": "uint256"
        },
        {
          "internalType": "bytes",
          "name": "data",
          "type": "bytes"
        }
      ],
      "name": "safeTransferFrom",
      "outputs": [],
      "stateMutability": "nonpayable",
      "type": "function"
    },
    {
      "inputs": [
        {
          "internalType": "address",
          "name": "operator",
          "type": "address"
        },
        {
          "internalType": "bool",
          "name": "approved",
          "type": "bool"
        }
      ],
      "name": "setApprovalForAll",
      "outputs": [],
      "stateMutability": "nonpayable",
      "type": "function"
    },
    {
      "inputs": [
        {
          "internalType": "bytes4",
          "name": "interfaceId",
          "type": "bytes4"
        }
      ],
      "name": "supportsInterface",
      "outputs": [
        {
          "internalType": "bool",
          "name": "",
          "type": "bool"
        }
      ],
      "stateMutability": "view",
      "type": "function",
      "constant": true
    },
    {
      "inputs": [],
      "name": "symbol",
      "outputs": [
        {
          "internalType": "string",
          "name": "",
          "type": "string"
        }
      ],
      "stateMutability": "view",
      "type": "function",
      "constant": true
    },
    {
      "inputs": [
        {
          "internalType": "uint256",
          "name": "",
          "type": "uint256"
        }
      ],
      "name": "uri",
      "outputs": [
        {
          "internalType": "string",
          "name": "",
          "type": "string"
        }
      ],
      "stateMutability": "view",
      "type": "function",
      "constant": true
    },
    {
      "inputs": [],
      "name": "getContractOwner",
      "outputs": [
        {
          "internalType": "address",
          "name": "",
          "type": "address"
        }
      ],
      "stateMutability": "view",
      "type": "function",
      "constant": true
    },
    {
      "inputs": [
        {
          "internalType": "address",
          "name": "newOwner",
          "type": "address"
        }
      ],
      "name": "transferOwnership",
      "outputs": [],
      "stateMutability": "nonpayable",
      "type": "function"
    },
    {
      "inputs": [
        {
          "internalType": "uint256",
          "name": "_feeRate",
          "type": "uint256"
        }
      ],
      "name": "setChangeFee",
      "outputs": [],
      "stateMutability": "nonpayable",
      "type": "function"
    },
    {
      "inputs": [
        {
          "internalType": "address",
          "name": "_platformAddr",
          "type": "address"
        }
      ],
      "name": "setChangeAddr",
      "outputs": [],
      "stateMutability": "nonpayable",
      "type": "function"
    },
    {
      "inputs": [
        {
          "internalType": "address",
          "name": "_tokenAddr",
          "type": "address"
        }
      ],
      "name": "setChangeTokenAddr",
      "outputs": [],
      "stateMutability": "nonpayable",
      "type": "function"
    },
    {
      "inputs": [
        {
          "internalType": "address",
          "name": "_owner",
          "type": "address"
        },
        {
          "internalType": "uint256",
          "name": "_tokenId",
          "type": "uint256"
        },
        {
          "internalType": "uint256",
          "name": "_flag",
          "type": "uint256"
        }
      ],
      "name": "setOwnedNFTFlag",
      "outputs": [],
      "stateMutability": "nonpayable",
      "type": "function"
    },
    {
      "inputs": [
        {
          "internalType": "string",
          "name": "key",
          "type": "string"
        }
      ],
      "name": "getValue",
      "outputs": [
        {
          "internalType": "string",
          "name": "",
          "type": "string"
        }
      ],
      "stateMutability": "view",
      "type": "function",
      "constant": true
    },
    {
      "inputs": [
        {
          "internalType": "string",
          "name": "key",
          "type": "string"
        }
      ],
      "name": "getLevel",
      "outputs": [
        {
          "internalType": "uint256",
          "name": "",
          "type": "uint256"
        }
      ],
      "stateMutability": "view",
      "type": "function",
      "constant": true
    },
    {
      "inputs": [
        {
          "internalType": "string",
          "name": "key",
          "type": "string"
        }
      ],
      "name": "getIndex",
      "outputs": [
        {
          "internalType": "uint256",
          "name": "",
          "type": "uint256"
        }
      ],
      "stateMutability": "view",
      "type": "function",
      "constant": true
    },
    {
      "inputs": [
        {
          "internalType": "string",
          "name": "key",
          "type": "string"
        },
        {
          "internalType": "string",
          "name": "value",
          "type": "string"
        },
        {
          "internalType": "uint256",
          "name": "level",
          "type": "uint256"
        }
      ],
      "name": "editValue",
      "outputs": [],
      "stateMutability": "nonpayable",
      "type": "function"
    },
    {
      "inputs": [
        {
          "internalType": "string",
          "name": "data",
          "type": "string"
        }
      ],
      "name": "setJsonSplit",
      "outputs": [],
      "stateMutability": "nonpayable",
      "type": "function"
    },
    {
      "inputs": [
        {
          "internalType": "string",
          "name": "data",
          "type": "string"
        }
      ],
      "name": "setJsonValue",
      "outputs": [],
      "stateMutability": "nonpayable",
      "type": "function"
    },
    {
      "inputs": [
        {
          "internalType": "string",
          "name": "key",
          "type": "string"
        },
        {
          "internalType": "string",
          "name": "value",
          "type": "string"
        },
        {
          "internalType": "uint256",
          "name": "level",
          "type": "uint256"
        }
      ],
      "name": "setValue",
      "outputs": [],
      "stateMutability": "nonpayable",
      "type": "function"
    },
    {
      "inputs": [],
      "name": "getAllKey",
      "outputs": [
        {
          "internalType": "string[]",
          "name": "",
          "type": "string[]"
        }
      ],
      "stateMutability": "view",
      "type": "function",
      "constant": true
    },
    {
      "inputs": [],
      "name": "getAllData",
      "outputs": [
        {
          "components": [
            {
              "internalType": "uint256",
              "name": "idx",
              "type": "uint256"
            },
            {
              "internalType": "address",
              "name": "addr",
              "type": "address"
            },
            {
              "internalType": "string",
              "name": "key",
              "type": "string"
            },
            {
              "internalType": "string",
              "name": "value",
              "type": "string"
            },
            {
              "internalType": "uint256",
              "name": "level",
              "type": "uint256"
            }
          ],
          "internalType": "struct WEB3_PASS.PersonData[]",
          "name": "",
          "type": "tuple[]"
        }
      ],
      "stateMutability": "view",
      "type": "function",
      "constant": true
    },
    {
      "inputs": [],
      "name": "getAllDataJson",
      "outputs": [
        {
          "internalType": "string[]",
          "name": "",
          "type": "string[]"
        },
        {
          "internalType": "string[]",
          "name": "",
          "type": "string[]"
        }
      ],
      "stateMutability": "view",
      "type": "function",
      "constant": true
    },
    {
      "inputs": [
        {
          "internalType": "string",
          "name": "_metadata",
          "type": "string"
        },
        {
          "internalType": "uint256",
          "name": "_amount",
          "type": "uint256"
        },
        {
          "internalType": "uint256",
          "name": "_price",
          "type": "uint256"
        },
        {
          "internalType": "uint256",
          "name": "_currency",
          "type": "uint256"
        }
      ],
      "name": "mint",
      "outputs": [],
      "stateMutability": "nonpayable",
      "type": "function"
    },
    {
      "inputs": [
        {
          "internalType": "uint256",
          "name": "_tokenId",
          "type": "uint256"
        },
        {
          "internalType": "uint256",
          "name": "_amount",
          "type": "uint256"
        }
      ],
      "name": "burn",
      "outputs": [],
      "stateMutability": "nonpayable",
      "type": "function"
    },
    {
      "inputs": [
        {
          "internalType": "uint256",
          "name": "_tokenId",
          "type": "uint256"
        }
      ],
      "name": "minterCheck",
      "outputs": [
        {
          "internalType": "address",
          "name": "",
          "type": "address"
        }
      ],
      "stateMutability": "view",
      "type": "function",
      "constant": true
    },
    {
      "inputs": [
        {
          "internalType": "uint256",
          "name": "_tokenId",
          "type": "uint256"
        }
      ],
      "name": "creatorCheck",
      "outputs": [
        {
          "internalType": "address",
          "name": "",
          "type": "address"
        }
      ],
      "stateMutability": "view",
      "type": "function",
      "constant": true
    }
  ],
  "bytecode": "0x60806040523480156200001157600080fd5b50604051806020016040528060008152506040518060400160405280600d81526020016c15d1508ccb541054d4c814d095609a1b8152506040518060400160405280600b81526020016a15d1508cd41054d4d4d09560aa1b81525060016200007f846200018960201b60201c565b825162000094906000906020860190620001a2565b508151620000aa906001906020850190620001a2565b506007805460ff19169115159190911762010000600160b01b03191633620100000217905550506040805160608101825273254f2347441590be38b8646297e49850fdbc4a02815260006020820152738c661806f716652b637728355cc4e2620d428f99818301529051909150600890620001259062000248565b90815260408051918290036020908101909220835181546001600160a01b039182166001600160a01b03199182161783559385015160018301559390910151600290910180549190931691161790556007805461ff00191661010017905562000295565b80516200019e906006906020840190620001a2565b5050565b828054620001b09062000258565b90600052602060002090601f016020900481019282620001d457600085556200021f565b82601f10620001ef57805160ff19168380011785556200021f565b828001600101855582156200021f579182015b828111156200021f57825182559160200191906001019062000202565b506200022d92915062000231565b5090565b5b808211156200022d576000815560010162000232565b6336b0b4b760e11b815260040190565b6002810460018216806200026d57607f821691505b602082108114156200028f57634e487b7160e01b600052602260045260246000fd5b50919050565b61409280620002a56000396000f3fe608060405234801561001057600080fd5b50600436106102265760003560e01c8063589a174311610130578063b45a3c0e116100b8578063e985e9c51161007c578063e985e9c5146104e1578063ea1bbe35146104f4578063f242432a14610507578063f2fde38b1461051a578063fb48fa811461052d57610226565b8063b45a3c0e1461047f578063b7872fe614610492578063c108adab146104a5578063ccec45b0146104b8578063dcf748ce146104cb57610226565b80639e1dde4b116100ff5780639e1dde4b146104205780639e942ace14610433578063a22cb46514610446578063a65ede1d14610459578063b390c0ab1461046c57610226565b8063589a1743146103dd5780636b5b4335146103f057806395d89b4114610405578063960384a01461040d57610226565b80631ef7c998116101b35780633f5a8244116101825780633f5a82441461037c578063439349e51461038f578063442890d5146103a25780634d122e53146103aa5780634e1273f4146103bd57610226565b80631ef7c9981461032e5780632d10fa28146103415780632eb2c2d6146103565780633dff35e91461036957610226565b806306218c5f116101fa57806306218c5f1461029c57806306fdde03146102c05780630e89341c146102d5578063118af6c4146102e85780631daad8941461030857610226565b8062fdd58e1461022b57806301ffc9a7146102545780630217264a14610274578063027a225514610287575b600080fd5b61023e610239366004613241565b610540565b60405161024b9190613cd3565b60405180910390f35b61026761026236600461334f565b610599565b60405161024b9190613770565b61023e610282366004613387565b6105e1565b61029a610295366004613422565b610671565b005b6102af6102aa3660046131f6565b610856565b60405161024b959493929190613cdc565b6102c86109bb565b60405161024b919061377b565b6102c86102e3366004613473565b610a4e565b6102fb6102f6366004613473565b610ae2565b60405161024b9190613591565b61031b610316366004613241565b610aed565b60405161024b979695949392919061378e565b6102fb61033c366004613473565b610bc7565b610349610bd2565b60405161024b9190613689565b61029a6103643660046130b5565b610e8a565b61031b610377366004613473565b610f04565b61029a61038a366004613387565b610f37565b6102af61039d366004613473565b611067565b6102fb6110ad565b61029a6103b836600461326a565b6110c2565b6103d06103cb36600461329c565b61113d565b60405161024b9190613738565b6102fb6103eb366004613473565b61125c565b6103f8611291565b60405161024b9190613648565b6102c861144f565b6102c861041b366004613387565b61145e565b61029a61042e3660046133b9565b6114f6565b6102fb610441366004613473565b6116cf565b61029a6104543660046131bc565b611704565b61029a6104673660046133b9565b6117f5565b61029a61047a36600461348b565b611a26565b61026761048d366004613473565b611a5b565b61029a6104a0366004613387565b611a65565b61029a6104b3366004613473565b611d9c565b61029a6104c6366004613069565b611dde565b6104d3611e3f565b60405161024b92919061365b565b6102676104ef366004613083565b612152565b61023e610502366004613387565b612180565b61029a61051536600461315a565b61220e565b61029a610528366004613069565b612288565b61029a61053b366004613069565b6122f5565b60006001600160a01b0383166105715760405162461bcd60e51b815260040161056890613877565b60405180910390fd5b5060009081526004602090815260408083206001600160a01b03949094168352929052205490565b60006001600160e01b03198216630dbd88c560e31b14806105ca57506001600160e01b03198216634ed638af60e11b145b806105d957506105d982612353565b90505b919050565b336000908152600b602052604080822090516105fe908490613565565b90815260405190819003602001902060010154336001600160a01b039091161461063a5760405162461bcd60e51b815260040161056890613b03565b336000908152600b6020526040908190209051610658908490613565565b9081526020016040518091039020600401549050919050565b600281106106915760405162461bcd60e51b815260040161056890613b71565b600a80546040805160e081018252878152336020808301919091529181018390526060810187905260808101869052600060a0820181905260c082018690526001840185559390935282518051929392600785027fc65a7bb8d6351c1cf70c95a316cc6a92839c986682d98bc35f958f4883f9d2a80192610716928492910190612e91565b506020828101516001830180546001600160a01b0319166001600160a01b0390921691909117905560408084015160028401556060808501516003850155608080860151600486015560a080870151600587015560c096870151600690960195909555825160e0810184528b8152338186018190528185018990529281018b9052908101899052600094810185905294850187905283526009825280832085845282529091208251805191926107d192849290910190612e91565b5060208201518160010160006101000a8154816001600160a01b0302191690836001600160a01b0316021790555060408201518160020155606082015181600301556080820151816004015560a0820151816005015560c0820151816006015590505061084f3382866040518060200160405280600081525061236c565b5050505050565b600b602090815260009283526040909220815180830184018051928152908401929093019190912091528054600182015460028301805492936001600160a01b03909216926108a490613f17565b80601f01602080910402602001604051908101604052809291908181526020018280546108d090613f17565b801561091d5780601f106108f25761010080835404028352916020019161091d565b820191906000526020600020905b81548152906001019060200180831161090057829003601f168201915b50505050509080600301805461093290613f17565b80601f016020809104026020016040519081016040528092919081815260200182805461095e90613f17565b80156109ab5780601f10610980576101008083540402835291602001916109ab565b820191906000526020600020905b81548152906001019060200180831161098e57829003601f168201915b5050505050908060040154905085565b6060600080546109ca90613f17565b80601f01602080910402602001604051908101604052809291908181526020018280546109f690613f17565b8015610a435780601f10610a1857610100808354040283529160200191610a43565b820191906000526020600020905b815481529060010190602001808311610a2657829003601f168201915b505050505090505b90565b606060068054610a5d90613f17565b80601f0160208091040260200160405190810160405280929190818152602001828054610a8990613f17565b8015610ad65780601f10610aab57610100808354040283529160200191610ad6565b820191906000526020600020905b815481529060010190602001808311610ab957829003601f168201915b50505050509050919050565b60006105d9826116cf565b6009602090815260009283526040808420909152908252902080548190610b1390613f17565b80601f0160208091040260200160405190810160405280929190818152602001828054610b3f90613f17565b8015610b8c5780601f10610b6157610100808354040283529160200191610b8c565b820191906000526020600020905b815481529060010190602001808311610b6f57829003601f168201915b5050506001840154600285015460038601546004870154600588015460069098015496976001600160a01b0390941696929550909350919087565b60006105d98261125c565b600c546060906000906001600160401b03811115610c0057634e487b7160e01b600052604160045260246000fd5b604051908082528060200260200182016040528015610c3957816020015b610c26612f15565b815260200190600190039081610c1e5790505b5090506000805b600c54811015610e8257600c8181548110610c6b57634e487b7160e01b600052603260045260246000fd5b60009182526020909120600590910201600101546001600160a01b0316331415610e70576000600c8281548110610cb257634e487b7160e01b600052603260045260246000fd5b90600052602060002090600502019050806040518060a0016040529081600082015481526020016001820160009054906101000a90046001600160a01b03166001600160a01b03166001600160a01b03168152602001600282018054610d1790613f17565b80601f0160208091040260200160405190810160405280929190818152602001828054610d4390613f17565b8015610d905780601f10610d6557610100808354040283529160200191610d90565b820191906000526020600020905b815481529060010190602001808311610d7357829003601f168201915b50505050508152602001600382018054610da990613f17565b80601f0160208091040260200160405190810160405280929190818152602001828054610dd590613f17565b8015610e225780601f10610df757610100808354040283529160200191610e22565b820191906000526020600020905b815481529060010190602001808311610e0557829003601f168201915b50505050508152602001600482015481525050848481518110610e5557634e487b7160e01b600052603260045260246000fd5b60200260200101819052508280610e6b90613f52565b935050505b80610e7a81613f52565b915050610c40565b509091505090565b60075460ff1615610ead5760405162461bcd60e51b815260040161056890613cb5565b610eb56124a1565b6001600160a01b0316856001600160a01b03161480610edb5750610edb856104ef6124a1565b610ef75760405162461bcd60e51b815260040161056890613a24565b61084f85858585856124a5565b600a8181548110610f1457600080fd5b9060005260206000209060070201600091509050806000018054610b1390613f17565b6000610f4282612679565b90506000610f68604051806040016040528060018152602001600b60fa1b815250612679565b90506000610f76838361269e565b610f81906001613d85565b6001600160401b03811115610fa657634e487b7160e01b600052604160045260246000fd5b604051908082528060200260200182016040528015610fd957816020015b6060815260200190600190039081610fc45790505b50905060005b815181101561084f57610ffa610ff5858561273f565b612752565b82828151811061101a57634e487b7160e01b600052603260045260246000fd5b602002602001018190525061105582828151811061104857634e487b7160e01b600052603260045260246000fd5b6020026020010151611a65565b8061105f81613f52565b915050610fdf565b600c818154811061107757600080fd5b60009182526020909120600590910201805460018201546002830180549294506001600160a01b0390911692916108a490613f17565b6007546201000090046001600160a01b031690565b6007546201000090046001600160a01b031633146110df57600080fd5b6001600160a01b0380841660008181526009602090815260408083208784529091529020600101549091161461111457600080fd5b6001600160a01b0390921660009081526009602090815260408083209383529290522060050155565b606081518351146111605760405162461bcd60e51b815260040161056890613be3565b600083516001600160401b0381111561118957634e487b7160e01b600052604160045260246000fd5b6040519080825280602002602001820160405280156111b2578160200160208202803683370190505b50905060005b8451811015611254576112198582815181106111e457634e487b7160e01b600052603260045260246000fd5b602002602001015185838151811061120c57634e487b7160e01b600052603260045260246000fd5b6020026020010151610540565b82828151811061123957634e487b7160e01b600052603260045260246000fd5b602090810291909101015261124d81613f52565b90506111b8565b509392505050565b6000818152600360205260408120546001600160a01b0316806105d95760405162461bcd60e51b815260040161056890613b25565b600c546060906000906001600160401b038111156112bf57634e487b7160e01b600052604160045260246000fd5b6040519080825280602002602001820160405280156112f257816020015b60608152602001906001900390816112dd5790505b5090506000805b600c54811015610e8257600c818154811061132457634e487b7160e01b600052603260045260246000fd5b60009182526020909120600590910201600101546001600160a01b031633141561143d57600c818154811061136957634e487b7160e01b600052603260045260246000fd5b9060005260206000209060050201600201805461138590613f17565b80601f01602080910402602001604051908101604052809291908181526020018280546113b190613f17565b80156113fe5780601f106113d3576101008083540402835291602001916113fe565b820191906000526020600020905b8154815290600101906020018083116113e157829003601f168201915b505050505083838151811061142357634e487b7160e01b600052603260045260246000fd5b6020026020010181905250818061143990613f52565b9250505b8061144781613f52565b9150506112f9565b6060600180546109ca90613f17565b336000908152600b602052604090819020905160609190611480908490613565565b90815260405190819003602001902060010154336001600160a01b03909116146114bc5760405162461bcd60e51b815260040161056890613b03565b336000908152600b60205260409081902090516114da908490613565565b90815260200160405180910390206003018054610a5d90613f17565b600c8054600d8190556040805160a081018252828152336020808301918252928201888152606083018890526080830187905260018501865560009590955281517fdf6966c971051c3d54ec59162606531493a51404a002842f56009d7e5cf4a8c7600590950294850190815590517fdf6966c971051c3d54ec59162606531493a51404a002842f56009d7e5cf4a8c8850180546001600160a01b0319166001600160a01b03909216919091179055935180519194936115dd937fdf6966c971051c3d54ec59162606531493a51404a002842f56009d7e5cf4a8c990910192910190612e91565b50606082015180516115f9916003840191602090910190612e91565b506080918201516004909101556040805160a081018252600d548152336020808301829052828401889052606083018790529382018590526000908152600b90935291819020905161164c908690613565565b908152604080516020928190038301902083518155838301516001820180546001600160a01b0319166001600160a01b0390921691909117905590830151805191926116a092600285019290910190612e91565b50606082015180516116bc916003840191602090910190612e91565b5060808201518160040155905050505050565b6000818152600260205260408120546001600160a01b0316806105d95760405162461bcd60e51b815260040161056890613995565b60075460ff16156117275760405162461bcd60e51b815260040161056890613cb5565b816001600160a01b03166117396124a1565b6001600160a01b031614156117605760405162461bcd60e51b815260040161056890613b9a565b806005600061176d6124a1565b6001600160a01b03908116825260208083019390935260409182016000908120918716808252919093529120805460ff1916921515929092179091556117b16124a1565b6001600160a01b03167f17307eab39ab6107e8899845ad3d59bd9653f200f220920489ca2b5937696c31836040516117e99190613770565b60405180910390a35050565b336000908152600b6020526040908190209051611813908590613565565b90815260405190819003602001902060010154336001600160a01b039091161461184f5760405162461bcd60e51b815260040161056890613b03565b6040805160a08101808352336000908152600b602052929092209091829190611879908790613565565b9081526020016040518091039020600001548152602001336001600160a01b0316815260200184815260200183815260200182815250600c600b6000336001600160a01b03166001600160a01b03168152602001908152602001600020856040516118e49190613565565b908152604051908190036020019020548154811061191257634e487b7160e01b600052603260045260246000fd5b6000918252602091829020835160059290920201908155828201516001820180546001600160a01b0319166001600160a01b0390921691909117905560408301518051919261196992600285019290910190612e91565b5060608201518051611985916003840191602090910190612e91565b50608091909101516004909101556040805160a08101808352336000908152600b6020529290922090918291906119bd908790613565565b9081526020016040518091039020600001548152602001336001600160a01b0316815260200184815260200183815260200182815250600b6000336001600160a01b03166001600160a01b031681526020019081526020016000208460405161164c9190613565565b611a2f82610bc7565b6001600160a01b0316336001600160a01b031614611a4c57600080fd5b611a573383836127c8565b5050565b5060075460ff1690565b6000611a7082612679565b90506000611a96604051806040016040528060018152602001601d60f91b815250612679565b90506000611aa4838361269e565b611aaf906001613d85565b6001600160401b03811115611ad457634e487b7160e01b600052604160045260246000fd5b604051908082528060200260200182016040528015611b0757816020015b6060815260200190600190039081611af25790505b50905060005b8151811015611b6157611b23610ff5858561273f565b828281518110611b4357634e487b7160e01b600052603260045260246000fd5b60200260200101819052508080611b5990613f52565b915050611b0d565b50600081600081518110611b8557634e487b7160e01b600052603260045260246000fd5b60200260200101519050600082600181518110611bb257634e487b7160e01b600052603260045260246000fd5b602090810291909101810151600c8054600d8190556040805160a08101825282815233818701908152918101888152606082018690526000608083018190526001850186559490945280517fdf6966c971051c3d54ec59162606531493a51404a002842f56009d7e5cf4a8c7600590940293840190815591517fdf6966c971051c3d54ec59162606531493a51404a002842f56009d7e5cf4a8c8840180546001600160a01b0319166001600160a01b039092169190911790559251805194965092949093611ca8937fdf6966c971051c3d54ec59162606531493a51404a002842f56009d7e5cf4a8c99093019290910190612e91565b5060608201518051611cc4916003840191602090910190612e91565b506080918201516004909101556040805160a081018252600d548152336020808301829052828401879052606083018690526000948301859052908452600b9052918190209051611d16908590613565565b908152604080516020928190038301902083518155838301516001820180546001600160a01b0319166001600160a01b039092169190911790559083015180519192611d6a92600285019290910190612e91565b5060608201518051611d86916003840191602090910190612e91565b5060808201518160040155905050505050505050565b6007546201000090046001600160a01b03163314611db957600080fd5b806008604051611dc890613581565b9081526040519081900360200190206001015550565b6007546201000090046001600160a01b03163314611dfb57600080fd5b806008604051611e0a90613581565b90815260405190819003602001902060020180546001600160a01b03929092166001600160a01b031990921691909117905550565b6060806000600c805490506001600160401b03811115611e6f57634e487b7160e01b600052604160045260246000fd5b604051908082528060200260200182016040528015611ea257816020015b6060815260200190600190039081611e8d5790505b50600c549091506000906001600160401b03811115611ed157634e487b7160e01b600052604160045260246000fd5b604051908082528060200260200182016040528015611f0457816020015b6060815260200190600190039081611eef5790505b5090506000805b600c5481101561214757600c8181548110611f3657634e487b7160e01b600052603260045260246000fd5b60009182526020909120600590910201600101546001600160a01b031633141561213557600c8181548110611f7b57634e487b7160e01b600052603260045260246000fd5b90600052602060002090600502016002018054611f9790613f17565b80601f0160208091040260200160405190810160405280929190818152602001828054611fc390613f17565b80156120105780601f10611fe557610100808354040283529160200191612010565b820191906000526020600020905b815481529060010190602001808311611ff357829003601f168201915b505050505084838151811061203557634e487b7160e01b600052603260045260246000fd5b6020026020010181905250600c818154811061206157634e487b7160e01b600052603260045260246000fd5b9060005260206000209060050201600301805461207d90613f17565b80601f01602080910402602001604051908101604052809291908181526020018280546120a990613f17565b80156120f65780601f106120cb576101008083540402835291602001916120f6565b820191906000526020600020905b8154815290600101906020018083116120d957829003601f168201915b505050505083838151811061211b57634e487b7160e01b600052603260045260246000fd5b6020026020010181905250818061213190613f52565b9250505b8061213f81613f52565b915050611f0b565b509193509150509091565b6001600160a01b03918216600090815260056020908152604080832093909416825291909152205460ff1690565b336000908152600b6020526040808220905161219d908490613565565b90815260405190819003602001902060010154336001600160a01b03909116146121d95760405162461bcd60e51b815260040161056890613b03565b336000908152600b60205260409081902090516121f7908490613565565b908152604051908190036020019020549050919050565b60075460ff16156122315760405162461bcd60e51b815260040161056890613cb5565b6122396124a1565b6001600160a01b0316856001600160a01b0316148061225f575061225f856104ef6124a1565b61227b5760405162461bcd60e51b81526004016105689061394c565b61084f85858585856128db565b6007546201000090046001600160a01b031633146122a557600080fd5b6001600160a01b0381166122cb5760405162461bcd60e51b8152600401610568906138c2565b600780546001600160a01b03909216620100000262010000600160b01b0319909216919091179055565b6007546201000090046001600160a01b0316331461231257600080fd5b80600860405161232190613581565b90815260405190819003602001902080546001600160a01b03929092166001600160a01b031990921691909117905550565b6001600160e01b031981166301ffc9a760e01b14919050565b6001600160a01b0384166123925760405162461bcd60e51b815260040161056890613c74565b600061239c6124a1565b90506123bd816000876123ae88612a13565b6123b788612a13565b87612671565b60008481526004602090815260408083206001600160a01b0389168452909152812080548592906123ef908490613d85565b92505081905550846001600160a01b031660006001600160a01b0316826001600160a01b03167fc3d58168c5ae7397731d063d5bbf3d657854427343f4c083240f7aacaa2d0f628787604051612446929190613d2b565b60405180910390a461245d81600087878787612a6c565b505050600090815260026020908152604080832080546001600160a01b039095166001600160a01b0319958616811790915560039092529091208054909216179055565b3390565b81518351146124c65760405162461bcd60e51b815260040161056890613c2c565b6001600160a01b0384166124ec5760405162461bcd60e51b8152600401610568906139df565b60006124f66124a1565b9050612506818787878787612671565b60005b845181101561260b57600085828151811061253457634e487b7160e01b600052603260045260246000fd5b60200260200101519050600085838151811061256057634e487b7160e01b600052603260045260246000fd5b60209081029190910181015160008481526004835260408082206001600160a01b038e1683529093529190912054909150818110156125b15760405162461bcd60e51b815260040161056890613ab9565b60008381526004602090815260408083206001600160a01b038e8116855292528083208585039055908b168252812080548492906125f0908490613d85565b925050819055505050508061260490613f52565b9050612509565b50846001600160a01b0316866001600160a01b0316826001600160a01b03167f4a39dc06d4c0dbc64b70af90fd698a233a518aa5d07e595d983b8c0526c8f7fb878760405161265b92919061374b565b60405180910390a4612671818787878787612b7a565b505050505050565b612681612f4d565b506040805180820190915281518152602082810190820152919050565b60008082600001516126c28560000151866020015186600001518760200151612c4b565b6126cc9190613d85565b90505b835160208501516126e09190613d85565b811161273857816126f081613f52565b925050826000015161272785602001518361270b9190613ed0565b86516127179190613ed0565b8386600001518760200151612c4b565b6127319190613d85565b90506126cf565b5092915050565b612747612f4d565b612738838383612d6e565b6060600082600001516001600160401b0381111561278057634e487b7160e01b600052604160045260246000fd5b6040519080825280601f01601f1916602001820160405280156127aa576020820181803683370190505b50905060006020820190506127388185602001518660000151612e11565b6001600160a01b0383166127ee5760405162461bcd60e51b815260040161056890613a76565b60006127f86124a1565b90506128288185600061280a87612a13565b61281387612a13565b60405180602001604052806000815250612671565b60008381526004602090815260408083206001600160a01b03881684529091529020548281101561286b5760405162461bcd60e51b815260040161056890613908565b60008481526004602090815260408083206001600160a01b03808a16808652919093528184208786039055905190918516907fc3d58168c5ae7397731d063d5bbf3d657854427343f4c083240f7aacaa2d0f62906128cc9089908990613d2b565b60405180910390a45050505050565b6001600160a01b0384166129015760405162461bcd60e51b8152600401610568906139df565b600061290b6124a1565b905061291c8187876123ae88612a13565b60008481526004602090815260408083206001600160a01b038a1684529091529020548381101561295f5760405162461bcd60e51b815260040161056890613ab9565b60008581526004602090815260408083206001600160a01b038b811685529252808320878503905590881682528120805486929061299e908490613d85565b92505081905550856001600160a01b0316876001600160a01b0316836001600160a01b03167fc3d58168c5ae7397731d063d5bbf3d657854427343f4c083240f7aacaa2d0f6288886040516129f4929190613d2b565b60405180910390a4612a0a828888888888612a6c565b50505050505050565b60408051600180825281830190925260609160009190602080830190803683370190505090508281600081518110612a5b57634e487b7160e01b600052603260045260246000fd5b602090810291909101015292915050565b612a7e846001600160a01b0316612e8b565b156126715760405163f23a6e6160e01b81526001600160a01b0385169063f23a6e6190612ab79089908990889088908890600401613603565b602060405180830381600087803b158015612ad157600080fd5b505af1925050508015612b01575060408051601f3d908101601f19168201909252612afe9181019061336b565b60015b612b4a57612b0d613f9f565b80612b185750612b32565b8060405162461bcd60e51b8152600401610568919061377b565b60405162461bcd60e51b8152600401610568906137db565b6001600160e01b0319811663f23a6e6160e01b14612a0a5760405162461bcd60e51b81526004016105689061382f565b612b8c846001600160a01b0316612e8b565b156126715760405163bc197c8160e01b81526001600160a01b0385169063bc197c8190612bc590899089908890889088906004016135a5565b602060405180830381600087803b158015612bdf57600080fd5b505af1925050508015612c0f575060408051601f3d908101601f19168201909252612c0c9181019061336b565b60015b612c1b57612b0d613f9f565b6001600160e01b0319811663bc197c8160e01b14612a0a5760405162461bcd60e51b81526004016105689061382f565b60008381868511612d575760208511612d055760008515612c97576001612c73876020613ed0565b612c7e906008613eb1565b612c89906002613de3565b612c939190613ed0565b1990505b84518116600087612ca88b8b613d85565b612cb29190613ed0565b855190915083165b828114612cf757818610612cdf57612cd28b8b613d85565b9650505050505050612d66565b85612ce981613f52565b965050838651169050612cba565b859650505050505050612d66565b508383206000905b612d178689613ed0565b8211612d555785832081811415612d345783945050505050612d66565b612d3f600185613d85565b9350508180612d4d90613f52565b925050612d0d565b505b612d618787613d85565b925050505b949350505050565b612d76612f4d565b6000612d948560000151866020015186600001518760200151612c4b565b602080870180519186019190915251909150612db09082613ed0565b835284516020860151612dc39190613d85565b811415612dd35760008552612e05565b83518351612de19190613d85565b85518690612df0908390613ed0565b9052508351612dff9082613d85565b60208601525b829150505b9392505050565b60208110612e495781518352612e28602084613d85565b9250612e35602083613d85565b9150612e42602082613ed0565b9050612e11565b6000198115612e78576001612e5f836020613ed0565b612e6b90610100613de3565b612e759190613ed0565b90505b9151835183169219169190911790915250565b3b151590565b828054612e9d90613f17565b90600052602060002090601f016020900481019282612ebf5760008555612f05565b82601f10612ed857805160ff1916838001178555612f05565b82800160010185558215612f05579182015b82811115612f05578251825591602001919060010190612eea565b50612f11929150612f67565b5090565b6040518060a001604052806000815260200160006001600160a01b031681526020016060815260200160608152602001600081525090565b604051806040016040528060008152602001600081525090565b5b80821115612f115760008155600101612f68565b80356001600160a01b03811681146105dc57600080fd5b600082601f830112612fa3578081fd5b81356020612fb8612fb383613d62565b613d39565b8281528181019085830183850287018401881015612fd4578586fd5b855b85811015612ff257813584529284019290840190600101612fd6565b5090979650505050505050565b600082601f83011261300f578081fd5b81356001600160401b0381111561302857613028613f83565b61303b601f8201601f1916602001613d39565b81815284602083860101111561304f578283fd5b816020850160208301379081016020019190915292915050565b60006020828403121561307a578081fd5b612e0a82612f7c565b60008060408385031215613095578081fd5b61309e83612f7c565b91506130ac60208401612f7c565b90509250929050565b600080600080600060a086880312156130cc578081fd5b6130d586612f7c565b94506130e360208701612f7c565b935060408601356001600160401b03808211156130fe578283fd5b61310a89838a01612f93565b9450606088013591508082111561311f578283fd5b61312b89838a01612f93565b93506080880135915080821115613140578283fd5b5061314d88828901612fff565b9150509295509295909350565b600080600080600060a08688031215613171578081fd5b61317a86612f7c565b945061318860208701612f7c565b9350604086013592506060860135915060808601356001600160401b038111156131b0578182fd5b61314d88828901612fff565b600080604083850312156131ce578182fd5b6131d783612f7c565b9150602083013580151581146131eb578182fd5b809150509250929050565b60008060408385031215613208578182fd5b61321183612f7c565b915060208301356001600160401b0381111561322b578182fd5b61323785828601612fff565b9150509250929050565b60008060408385031215613253578182fd5b61325c83612f7c565b946020939093013593505050565b60008060006060848603121561327e578283fd5b61328784612f7c565b95602085013595506040909401359392505050565b600080604083850312156132ae578182fd5b82356001600160401b03808211156132c4578384fd5b818501915085601f8301126132d7578384fd5b813560206132e7612fb383613d62565b82815281810190858301838502870184018b1015613303578889fd5b8896505b8487101561332c5761331881612f7c565b835260019690960195918301918301613307565b5096505086013592505080821115613342578283fd5b5061323785828601612f93565b600060208284031215613360578081fd5b8135612e0a81614043565b60006020828403121561337c578081fd5b8151612e0a81614043565b600060208284031215613398578081fd5b81356001600160401b038111156133ad578182fd5b612d6684828501612fff565b6000806000606084860312156133cd578081fd5b83356001600160401b03808211156133e3578283fd5b6133ef87838801612fff565b94506020860135915080821115613404578283fd5b5061341186828701612fff565b925050604084013590509250925092565b60008060008060808587031215613437578182fd5b84356001600160401b0381111561344c578283fd5b61345887828801612fff565b97602087013597506040870135966060013595509350505050565b600060208284031215613484578081fd5b5035919050565b6000806040838503121561349d578182fd5b50508035926020909101359150565b6000815180845260208085018081965082840281019150828601855b858110156134f25782840389526134e0848351613539565b988501989350908401906001016134c8565b5091979650505050505050565b6000815180845260208085019450808401835b8381101561352e57815187529582019590820190600101613512565b509495945050505050565b60008151808452613551816020860160208601613ee7565b601f01601f19169290920160200192915050565b60008251613577818460208701613ee7565b9190910192915050565b6336b0b4b760e11b815260040190565b6001600160a01b0391909116815260200190565b6001600160a01b0386811682528516602082015260a0604082018190526000906135d1908301866134ff565b82810360608401526135e381866134ff565b905082810360808401526135f78185613539565b98975050505050505050565b6001600160a01b03868116825285166020820152604081018490526060810183905260a06080820181905260009061363d90830184613539565b979650505050505050565b600060208252612e0a60208301846134ac565b60006040825261366e60408301856134ac565b828103602084015261368081856134ac565b95945050505050565b60208082528251828201819052600091906040908185019080840286018301878501865b8381101561372a57888303603f19018552815180518452878101516001600160a01b0316888501528681015160a0888601819052906136ee82870182613539565b915050606080830151868303828801526137088382613539565b60809485015197909401969096525050948701949250908601906001016136ad565b509098975050505050505050565b600060208252612e0a60208301846134ff565b60006040825261375e60408301856134ff565b828103602084015261368081856134ff565b901515815260200190565b600060208252612e0a6020830184613539565b600060e082526137a160e083018a613539565b6001600160a01b039890981660208301525060408101959095526060850193909352608084019190915260a083015260c090910152919050565b60208082526034908201527f455243313135353a207472616e7366657220746f206e6f6e20455243313135356040820152732932b1b2b4bb32b91034b6b83632b6b2b73a32b960611b606082015260800190565b60208082526028908201527f455243313135353a204552433131353552656365697665722072656a656374656040820152676420746f6b656e7360c01b606082015260800190565b6020808252602b908201527f455243313135353a2062616c616e636520717565727920666f7220746865207a60408201526a65726f206164647265737360a81b606082015260800190565b60208082526026908201527f4f776e61626c653a206e6577206f776e657220697320746865207a65726f206160408201526564647265737360d01b606082015260800190565b60208082526024908201527f455243313135353a206275726e20616d6f756e7420657863656564732062616c604082015263616e636560e01b606082015260800190565b60208082526029908201527f455243313135353a2063616c6c6572206973206e6f74206f776e6572206e6f7260408201526808185c1c1c9bdd995960ba1b606082015260800190565b6020808252602a908201527f455243313135353a206f776e657220717565727920666f72206e6f6e657869736040820152693a32b73a103a37b5b2b760b11b606082015260800190565b60208082526025908201527f455243313135353a207472616e7366657220746f20746865207a65726f206164604082015264647265737360d81b606082015260800190565b60208082526032908201527f455243313135353a207472616e736665722063616c6c6572206973206e6f74206040820152711bdddb995c881b9bdc88185c1c1c9bdd995960721b606082015260800190565b60208082526023908201527f455243313135353a206275726e2066726f6d20746865207a65726f206164647260408201526265737360e81b606082015260800190565b6020808252602a908201527f455243313135353a20696e73756666696369656e742062616c616e636520666f60408201526939103a3930b739b332b960b11b606082015260800190565b60208082526008908201526727379027bbb732b960c11b604082015260600190565b6020808252602c908201527f455243313135353a2063726561746f7220717565727920666f72206e6f6e657860408201526b34b9ba32b73a103a37b5b2b760a11b606082015260800190565b6020808252600f908201526e63757272656e63793a3a436865636b60881b604082015260600190565b60208082526029908201527f455243313135353a2073657474696e6720617070726f76616c20737461747573604082015268103337b91039b2b63360b91b606082015260800190565b60208082526029908201527f455243313135353a206163636f756e747320616e6420696473206c656e677468604082015268040dad2e6dac2e8c6d60bb1b606082015260800190565b60208082526028908201527f455243313135353a2069647320616e6420616d6f756e7473206c656e677468206040820152670dad2e6dac2e8c6d60c31b606082015260800190565b60208082526021908201527f455243313135353a206d696e7420746f20746865207a65726f206164647265736040820152607360f81b606082015260800190565b6020808252600490820152634c4f434b60e01b604082015260600190565b90815260200190565b8581526001600160a01b038516602082015260a060408201819052600090613d0690830186613539565b8281036060840152613d188186613539565b9150508260808301529695505050505050565b918252602082015260400190565b6040518181016001600160401b0381118282101715613d5a57613d5a613f83565b604052919050565b60006001600160401b03821115613d7b57613d7b613f83565b5060209081020190565b60008219821115613d9857613d98613f6d565b500190565b80825b6001808611613daf5750613dda565b818704821115613dc157613dc1613f6d565b80861615613dce57918102915b9490941c938002613da0565b94509492505050565b6000612e0a6000198484600082613dfc57506001612e0a565b81613e0957506000612e0a565b8160018114613e1f5760028114613e2957613e56565b6001915050612e0a565b60ff841115613e3a57613e3a613f6d565b6001841b915084821115613e5057613e50613f6d565b50612e0a565b5060208310610133831016604e8410600b8410161715613e89575081810a83811115613e8457613e84613f6d565b612e0a565b613e968484846001613d9d565b808604821115613ea857613ea8613f6d565b02949350505050565b6000816000190483118215151615613ecb57613ecb613f6d565b500290565b600082821015613ee257613ee2613f6d565b500390565b60005b83811015613f02578181015183820152602001613eea565b83811115613f11576000848401525b50505050565b600281046001821680613f2b57607f821691505b60208210811415613f4c57634e487b7160e01b600052602260045260246000fd5b50919050565b6000600019821415613f6657613f66613f6d565b5060010190565b634e487b7160e01b600052601160045260246000fd5b634e487b7160e01b600052604160045260246000fd5b60e01c90565b600060443d1015613faf57610a4b565b600481823e6308c379a0613fc38251613f99565b14613fcd57610a4b565b6040513d600319016004823e80513d6001600160401b038160248401118184111715613ffc5750505050610a4b565b828401925082519150808211156140165750505050610a4b565b503d8301602082840101111561402e57505050610a4b565b601f01601f1916810160200160405291505090565b6001600160e01b03198116811461405957600080fd5b5056fea2646970667358221220d316495a263e7540ec706362a118e31f5e7d475720bb5f6ead4454f2733ac3a164736f6c63430008000033",
  "immutableReferences": {},
  "source": "// SPDX-License-Identifier: GPL-3.0-or-later\r\npragma solidity ^0.8.0;\r\nimport \"./token/ERC1155/ERC1155.sol\";\r\nimport \"./utils/math/SafeMath.sol\";\r\nimport \"./utils/src/strings.sol\";\r\n\r\n\r\ncontract WEB3_PASS is ERC1155{\r\n  using SafeMath for uint256;\r\n  bool private isLocked;\r\n  using strings for *;\r\n\r\n    address ContractOwner;          //  \r\n    constructor() ERC1155(\"\",\"WEB3-PASS SBT\",\"WEB3PASSSBT\",true) {\r\n      ContractOwner = msg.sender;\r\n      setting[\"main\"] = adminSetting(0x254F2347441590bE38B8646297e49850FdbC4A02,0,0x8C661806f716652B637728355cC4e2620D428F99); //  , ,ERC20 \r\n      isLocked = true;\r\n    }\r\n\r\n   modifier onlyowner {\r\n       require(ContractOwner == msg.sender);\r\n       _;\r\n   }\r\n\r\n    struct NFTAsset {\r\n      string metadata;\r\n      address owner;\r\n      uint id;\r\n      uint amount;\r\n      uint price;\r\n      uint flag;\r\n      uint currency; //0-ETH 1-ERC20\r\n    }\r\n\r\n    struct adminSetting {\r\n      address platformAddr;\r\n      uint feeRate;\r\n      address tokenAddr;\r\n    }\r\n\r\n    mapping (string => adminSetting) setting;\r\n\r\n    mapping(address=> mapping(uint => NFTAsset)) public ownedNFT;\r\n\r\n    NFTAsset[] public nft_asset;\r\n\r\n    function getContractOwner() public view returns (address) {\r\n        return ContractOwner;\r\n    }\r\n    function transferOwnership(address newOwner) public onlyowner() {\r\n        require(newOwner != address(0), \"Ownable: new owner is the zero address\");\r\n        ContractOwner = newOwner;\r\n    }\r\n    function setChangeFee(uint256 _feeRate) public onlyowner() {\r\n       setting[\"main\"].feeRate = _feeRate;\r\n    }\r\n    function setChangeAddr(address _platformAddr) public onlyowner() {\r\n       setting[\"main\"].platformAddr = _platformAddr;\r\n    }\r\n    function setChangeTokenAddr(address _tokenAddr) public onlyowner() {\r\n       setting[\"main\"].tokenAddr = _tokenAddr;\r\n    }\r\n    function setOwnedNFTFlag(address _owner,uint256 _tokenId,uint256 _flag) public onlyowner(){\r\n      require(_owner == ownedNFT[_owner][_tokenId].owner);\r\n      ownedNFT[_owner][_tokenId].flag = _flag;\r\n    }\r\n\r\n//WEB3 PASS\r\nstruct PersonData {\r\n      uint256 idx;\r\n      address addr;\r\n      string key;\r\n      string value;\r\n      uint256 level;\r\n    }\r\n\r\nmapping(address=> mapping(string => PersonData)) public myData;\r\n\r\nPersonData[] public person_data;\r\nuint256 private arrayIndex;\r\n  function getValue(string memory key) public view returns (string memory)\r\n  {\r\n    require(msg.sender == myData[msg.sender][key].addr , \"No Owner\");\r\n\r\n    return (myData[msg.sender][key].value);\r\n  }\r\n\r\n  function getLevel(string memory key) public view returns (uint256)\r\n  {\r\n    require(msg.sender == myData[msg.sender][key].addr , \"No Owner\");\r\n\r\n    return (myData[msg.sender][key].level);\r\n  }\r\n\r\n  function getIndex(string memory key) public view returns (uint256)\r\n  {\r\n    require(msg.sender == myData[msg.sender][key].addr , \"No Owner\");\r\n\r\n    return (myData[msg.sender][key].idx);\r\n  }\r\n\r\n  function editValue(string memory key, string memory value, uint256 level)\r\n  public\r\n  {\r\n    require(msg.sender == myData[msg.sender][key].addr , \"No Owner\");\r\n\r\n    person_data[myData[msg.sender][key].idx] = (PersonData(myData[msg.sender][key].idx,msg.sender,key,value,level));\r\n    myData[msg.sender][key]= PersonData(myData[msg.sender][key].idx,msg.sender,key,value,level);\r\n  }\r\n\r\n\r\n  function setJsonSplit(string memory data)  public {\r\n         strings.slice memory stringSlice = data.toSlice();\r\n         strings.slice memory delimeterSlice = \",\".toSlice();\r\n         string[] memory strings = new string[](stringSlice.count(delimeterSlice)+1);\r\n         for (uint i = 0; i < strings.length; i++) {\r\n            strings[i] = stringSlice.split(delimeterSlice).toString();\r\n             setJsonValue(strings[i]);\r\n         }\r\n     }\r\n\r\n //:1mlKwjezQm4U8SdmUKCW2w==,:38,:A\r\n\r\n event consoleLogString(string data);\r\n event consoleLogInt(uint256 obj);\r\n\r\n\r\n   function setJsonValue(string memory data)\r\n   public\r\n   {\r\n         strings.slice memory stringSlice = data.toSlice();\r\n         strings.slice memory delimeterSlice = \":\".toSlice();\r\n         string[] memory strings = new string[](stringSlice.count(delimeterSlice)+1);\r\n\r\n         for (uint i = 0; i < strings.length; i++) {\r\n            strings[i] = stringSlice.split(delimeterSlice).toString();\r\n             /* emit consoleLogString(strings[i]); */\r\n         }\r\n\r\n     string memory key = strings[0];\r\n     string memory value = strings[1];\r\n     arrayIndex = person_data.length;\r\n     person_data.push(PersonData(arrayIndex,msg.sender,key,value,0));\r\n     myData[msg.sender][key]= PersonData(arrayIndex,msg.sender,key,value,0);\r\n   }\r\n\r\n  function setValue(string memory key, string memory value, uint256 level)\r\n  public\r\n  {\r\n\r\n    arrayIndex = person_data.length;\r\n    person_data.push(PersonData(arrayIndex,msg.sender,key,value,level));\r\n    myData[msg.sender][key]= PersonData(arrayIndex,msg.sender,key,value,level);\r\n  }\r\n\r\nfunction getAllKey() public view returns (string[] memory){\r\n      string[] memory id = new string[](person_data.length);\r\n      uint j =0;\r\n      for (uint i = 0; i < person_data.length; i++) {\r\n          if(msg.sender==person_data[i].addr){\r\n            id[j] = person_data[i].key;\r\n            j++;\r\n          }\r\n      }\r\n      return id;\r\n  }\r\n\r\nfunction getAllData() public view returns (PersonData[] memory){\r\n      PersonData[] memory id = new PersonData[](person_data.length);\r\n      uint j =0;\r\n      for (uint i = 0; i < person_data.length; i++) {\r\n          if(msg.sender==person_data[i].addr){\r\n            PersonData storage member = person_data[i];\r\n            id[j] = member;\r\n            j++;\r\n          }else{\r\n          }\r\n      }\r\n      return id;\r\n  }\r\n\r\n  function getAllDataJson() public view returns (string[] memory,string[] memory) {\r\n      string[] memory keys = new string[](person_data.length);\r\n      string[] memory values = new string[](person_data.length);\r\n      uint j =0;\r\n      for (uint i = 0; i < person_data.length; i++) {\r\n          if(msg.sender==person_data[i].addr){\r\n            keys[j] = person_data[i].key;\r\n            values[j] = person_data[i].value;\r\n            j++;\r\n          }\r\n      }\r\n      return (keys,values);\r\n\r\n    }\r\n//WEB3 PASS\r\n\r\n    //\r\n    function mint(string memory _metadata, uint256 _amount, uint256 _price, uint256 _currency) public {// \r\n        require(_currency < 2,\"currency::Check\");\r\n        uint256 assetId = nft_asset.length; //   ID\r\n        nft_asset.push(NFTAsset(_metadata,msg.sender,assetId,_amount,_price,0,_currency));\r\n        ownedNFT[msg.sender][assetId]= NFTAsset(_metadata,msg.sender,assetId,_amount,_price,0,_currency);\r\n        _mint(msg.sender, assetId, _amount, \"\"); //ERC1155 \r\n    }\r\n\r\n    //\r\n\r\n    function burn(uint256 _tokenId, uint256 _amount) public {\r\n      require(msg.sender == creatorCheck(_tokenId));\r\n      _burn(msg.sender, _tokenId, _amount); //ERC1155 \r\n    }\r\n\r\n\r\n      function minterCheck(uint256 _tokenId) public view returns (address){ //minter \r\n        return minterOf(_tokenId);\r\n      }\r\n      function creatorCheck(uint256 _tokenId) public view returns (address){ //creator    \r\n          return creatorOf(_tokenId);\r\n      }\r\n}\r\n",
  "sourcePath": "C:\\Users\\jade\\GoogleDrive\\htdocs\\contract_build_swf\\contracts\\WEB3_PASS.sol",
  "compiler": {
    "name": "solc",
    "version": "0.8.0+commit.c7dfd78e.Emscripten.clang"
  },
  "schemaVersion": "3.4.14",
  "updatedAt": "2023-07-31T11:33:09.292Z",
  "networkType": "ethereum",
  "devdoc": {
    "kind": "dev",
    "methods": {
      "balanceOf(address,uint256)": {
        "details": "See {IERC1155-balanceOf}. Requirements: - `account` cannot be the zero address."
      },
      "balanceOfBatch(address[],uint256[])": {
        "details": "See {IERC1155-balanceOfBatch}. Requirements: - `accounts` and `ids` must have the same length."
      },
      "isApprovedForAll(address,address)": {
        "details": "See {IERC1155-isApprovedForAll}."
      },
      "locked(uint256)": {
        "details": "SBTs assigned to zero address are considered invalid, and queries about them do throw.",
        "params": {
          "tokenId": "The identifier for an SBT."
        }
      },
      "name()": {
        "details": "See {IERC721Metadata-name}."
      },
      "safeBatchTransferFrom(address,address,uint256[],uint256[],bytes)": {
        "details": "See {IERC1155-safeBatchTransferFrom}."
      },
      "safeTransferFrom(address,address,uint256,uint256,bytes)": {
        "details": "See {IERC1155-safeTransferFrom}."
      },
      "setApprovalForAll(address,bool)": {
        "details": "See {IERC1155-setApprovalForAll}."
      },
      "supportsInterface(bytes4)": {
        "details": "See {IERC165-supportsInterface}."
      },
      "symbol()": {
        "details": "See {IERC721Metadata-symbol}."
      },
      "uri(uint256)": {
        "details": "See {IERC1155MetadataURI-uri}. This implementation returns the same URI for *all* token types. It relies on the token type ID substitution mechanism https://eips.ethereum.org/EIPS/eip-1155#metadata[defined in the EIP]. Clients calling this function must replace the `\\{id\\}` substring with the actual token type ID."
      }
    },
    "version": 1
  },
  "userdoc": {
    "events": {
      "Locked(uint256)": {
        "notice": "Emitted when the locking status is changed to locked."
      },
      "Unlocked(uint256)": {
        "notice": "Emitted when the locking status is changed to unlocked."
      }
    },
    "kind": "user",
    "methods": {
      "locked(uint256)": {
        "notice": "Returns the locking status of an Soulbound Token"
      }
    },
    "version": 1
  }
}